:06023000C2A58F80D2A7D9
:09023600007F027EC7DEFEDFFC42
:01023F00229C
:0A024C00C2A6120230C2A702023659
:1001B700CFCDCFCECCCE1200427C007D0A120042BA
:0401C700ED2430FFF4
:0A01CB00D2A6120230C2A7020236CB
:1001F200AE07BE0104ED148006BE0209ED243F44A1
:0602020080FF12024C22F5
:100208007F3812024C7F0C12024C7F0612024C7F80
:040218000102024C91
:0A025600AC031201F2AF040201CB69
:060175008B228A2389247D
:10017B001201F2E4FDAB22AA23A9248D8275830020
:0C018B00120003FF60061201CB0D80E99A
:010197002245
:0C0142007F0AEA24FFFDE434FFFC7E008D
:08014E008E1E8F1F8C208D21F5
:100156007F017E00E4FBEBC39521E5206480F87403
:0E0166008098500AAC1EAD1F1200300B80E8CE
:010174002268
:0401D5008A118B12EE
:1001D9001201F2AA13EAD39400400D120142AC11A4
:0801E900AD121201B71A80EDFE
:0101F10022EB
:100097001201F2C3EA64809480400B7F2B1201CBDC
:1000A7008A0D8B0E800E7F2D1201CBC3E49BF50EBC
:1000B700E49AF50DAA0CEAD39400400D120142AC64
:0900C7000DAD0E1201B71A80ED17
:0100D000220D
:0400D1008A168B17E9
:1000D5001201F2AA18EAD3940040297F10120144B4
:1000E500AC16AD17CFCDCFCECCCE120042EF540F0C
:1000F500FEC3940AEE5004243080022437FF120117
:04010500CB1A80D1C0
:0101090022D3
:04010A008A1B8B1CA5
:10010E001201F2AA1DEAD394004028EA24FFFDE46E
:10011E0034FFFC7F027E0012014EAC1BAD1CCFCD16
:10012E00CFCECCCE120042EF54012430FF1201CBC1
:03013E001A80D252
:01014100229B
:10021C00492077617320626F726E00696E203139EC
:04022C00383921003C
:100198001202087BFF7A02791C7D017F011201752A
:0F01A8007BFF7A0279277D097F0212017580FEA5
:03000000020240B9
:0C024000787FE4F6D8FD75812402019857
:10000300BB010CE58229F582E5833AF583E02250B2
:1000130006E92582F8E622BBFE06E92582F8E222FC
:0D002300E58229F582E5833AF583E4932216
:10003000EF8DF0A4A8F0CF8CF0A428CE8DF0A42EE4
:02004000FE229E
:10004200BC000BBE0029EF8DF084FFADF022E4CCA2
:10005200F875F008EF2FFFEE33FEEC33FCEE9DEC6B
:10006200984005FCEE9DFE0FD5F0E9E4CEFD22EDB1
:10007200F8F5F0EE8420D21CFEADF075F008EF2FFB
:10008200FFED33FD4007985006D5F0F222C398FDEC
:050092000FD5F0EA2289
:00000001FF
