:0B008F00AF03AE02120003AF82AE838D
:10009A00EF4E6010007D027CC7DCFEDDFCEF1F70B6
:0400AA00EF1E80ECD9
:0100AE00222F
:10000300EF64014E700475A0FE22EF64024E70048B
:1000130075A0FD22EF64034E700475A0FB22EF640C
:10002300044E700475A0F722EF64054E700475A0AA
:10003300EF22EF64064E700475A0DF22EF64074ED3
:10004300700475A0BF22EF64084E700375A07F2271
:10005300E4F508F5099001F4E509450860177A000D
:100063007B08C3EB9401EA940040ED12008FEB1B75
:1000730070F01A80ED7A007B01D3EB9408EA9400C8
:0C00830050D612008F0BBB00010A80ED6C
:030000000200AF4C
:0C00AF00787FE4F6D8FD7581090200534B
:00000001FF
