:10008F00E4FBFA7D01FCFF1200D4E4FBFA7D01FCD6
:10009F007F011200D47B017A007D047C007F021265
:1000AF0000D4E4FBFA7D05FC7F031200D4E4FBFAD5
:1000BF007D01FC7F041200D4E4FBFA7D04FC7F0574
:0500CF001200D480BB0B
:10010500EF1FAC0670011E4C600B007D027CC7DC46
:05011500FEDDFC80EBA3
:01011A0022C2
:0D011B000B083F065B4F666D7D077F6F0090
:1000D400EFD39407502AED940AEC64809480502066
:1000E400EF25E025E0F4F5A074082DF8E6F580EBA3
:1000F4004A600674802580F5807F017E0012010528
:0101040022D8
:03000000020003F8
:0C000300787FE4F6D8FD75811202004AF7
:10000F0002008FE493A3F8E493A34003F68001F278
:10001F0008DFF48029E493A3F85407240CC8C333F2
:10002F00C4540F4420C8834004F456800146F6DFC1
:10003F00E4800B010204081020408090011BE47E35
:10004F00019360BCA3FF543F30E509541FFEE493B6
:10005F00A360010ECF54C025E060A840B8E493A37D
:10006F00FAE493A3F8E493A3C8C582C8CAC583CAA8
:10007F00F0A3C8C582C8CAC583CADFE9DEE780BE60
:0101280000D6
:00000001FF
