:1005030020202020202020202020202020202020E8
:1005130000202057726F6E6700436F7272656374B9
:0B0523000050617373776F72643A0040
:10058C0003080000190E0B31313435313431393157
:05059C00393831300088
:1002BE00EFD3940A40037F0022C3900029E50A95EC
:1002CE0082E509958340037F0022BF0A047F0080E8
:1002DE0000AB08AA09A90AEF1201B97401250AF5A3
:1002EE000AE43509F5097BFF7A0579037D017F0262
:1002FE0012052EE4F52AC3E50A9419FFE5099400C8
:10030E00FEC3E52A9FEE6480F87480985019E52AA2
:10031E0004FD7419252AF8E6FB7A00752F017F0279
:0A032E0012056F052A80CF7F01221F
:10033800EF640C60037F0022900019E508700AE55D
:100348000A65827004E50965837002FF2274FF253F
:100358000AF50A74FF3509F5097BFF7A0579037DEB
:10036800017F0212052EE4F52AC3E50A9419FFE578
:10037800099400FEC3E52A9FEE6480F874809850C3
:1003880019E52A04FD7419252AF8E6FB7A00752F69
:0D039800017F0212056F052A80CF7F012230
:1003A500EF640B60037F0022C3E50A9419FFE5099A
:1003B5009400FEEF640D4E60028015E4F52A740B7F
:1003C500252AF8E624D0FF7419252AF8E66F600877
:1003D5007BFF7A057914800F052AE52AC3940D4021
:1003E500DD7BFF7A05791C7D0A7F0112052E7F01D1
:0103F50022E5
:1004D4001205CE7BFF7A0579247D017F0112052E5A
:1004E4001200038F29E52960F71202BEEF70F1AF05
:0F04F40029120338EF70E9AF291203A5EF80E159
:1005A200EF1FAC0670011E4C600B007D027CC7DCA5
:0505B200FEDDFC80EB02
:0105B7002221
:0605E200C2A58F80D2A724
:0905E800007F027EC7DEFEDFFC8D
:0105F10022E7
:0A05F200C2A61205E2C2A70205E846
:10055100CFCDCFCECCCE1201DD7C007D0A1201DDE4
:04056100ED2430FF56
:0A056500D2A61205E2C2A70205E8C3
:1005B800AE07BE0104ED148006BE0209ED243F44D7
:0605C80080FF1205F22283
:1005CE007F381205F27F0C1205F27F061205F27FBC
:0405DE00010205F21F
:0A05FC00AC031205B8AF0402056558
:06052E008B2B8A2C892DA5
:100534001205B8E4FDAB2BAA2CA92D8D827583007E
:0C05440012018CFF60061205650D80E9B5
:010550002288
:0C04A1007F0AEA24FFFDE434FFFC7E002B
:0804AD008E308F318C328D334B
:1004B5007F017E00E4FBEBC39533E5326480F8747D
:0E04C5008098500AAC30AD311201CB0B80E8AC
:0104D3002206
:04056F008A2D8B2E18
:100573001205B8AA2FEAD39400400D1204A1AC2DA2
:08058300AD2E1205511A80EDA6
:01058B00224D
:1003F6001205B8C3EA64809480400B7F2B12056512
:100406008A398B3A800E7F2D120565C3E49BF53A37
:10041600E49AF539AA38EAD39400400D1204A1AC47
:0904260039AD3A1205511A80EDBE
:01042F0022AA
:040430008A3D8B3E38
:100434001205B8AA3FEAD3940040297F101204A3FE
:10044400AC3DAD3ECFCDCFCECCCE1201DDEF540FBF
:10045400FEC3940AEE5004243080022437FF1205B0
:04046400651A80D1C4
:010468002271
:040469008A428B43F5
:10046D001205B8AA44EAD394004028EA24FFFDE41B
:10047D0034FFFC7F027E001204ADAC42AD43CFCD04
:10048D00CFCECCCE1201DDEF54012430FF12056525
:03049D001A80D2F0
:0104A0002239
:10000300E4F52B7590FFC2932097137F14FE12051E
:10001300A23097FD7F147E001205A2752B01209656
:10002300147F147E001205A23096FD7F147E001209
:1000330005A2752B052095147F147E001205A230AE
:1000430095FD7F147E001205A2752B092094147F61
:10005300147E001205A23094FD7F147E001205A2C7
:10006300752B0D7590FFC2922097147F147E00129A
:1000730005A23097FD7F147E001205A2752B022086
:1000830096147F147E001205A23096FD7F147E0025
:100093001205A2752B062095147F147E001205A26B
:1000A3003095FD7F147E001205A2752B0A2094144F
:1000B3007F147E001205A23094FD7F147E0012058A
:1000C300A2752B0E7590FFC2912097147F147E00AA
:1000D3001205A23097FD7F147E001205A2752B0333
:1000E3002096147F147E001205A23096FD7F147EA5
:1000F300001205A2752B072095147F147E001205AC
:10010300A23095FD7F147E001205A2752B0B20945F
:10011300147F147E001205A23094FD7F147E00121A
:1001230005A2752B0F7590FFC2902097147F147E44
:10013300001205A23097FD7F147E001205A2752BD5
:10014300042096147F147E001205A23096FD7F14BE
:100153007E001205A2752B082095147F147E0012D1
:1001630005A23095FD7F147E001205A2752B0C208D
:1001730094147F147E001205A23094FD7F147E0038
:080183001205A2752B10AF2B31
:01018B002251
:03000000020232C7
:0C023200787FE4F6D8FD75814402027963
:10018C00BB010CE58229F582E5833AF583E0225028
:10019C0006E92582F8E622BBFE06E92582F8E22272
:0D01AC00E58229F582E5833AF583E493228C
:1001B900BB010689828A83F0225002F722BBFE0125
:0201C900F3221F
:1001CB00EF8DF0A4A8F0CF8CF0A428CE8DF0A42E48
:0201DB00FE2202
:1001DD00BC000BBE0029EF8DF084FFADF022E4CC06
:1001ED00F875F008EF2FFFEE33FEEC33FCEE9DECCF
:1001FD00984005FCEE9DFE0FD5F0E9E4CEFD22ED15
:10020D00F8F5F0EE8420D21CFEADF075F008EF2F5E
:10021D00FFED33FD4007985006D5F0F222C398FD4F
:05022D000FD5F0EA22EC
:10023E000204D4E493A3F8E493A34003F68001F2FE
:10024E0008DFF48029E493A3F85407240CC8C333C1
:10025E00C4540F4420C8834004F456800146F6DF90
:10026E00E4800B010204081020408090058CE47E8F
:10027E00019360BCA3FF543F30E509541FFEE49385
:10028E00A360010ECF54C025E060A840B8E493A34C
:10029E00FAE493A3F8E493A3C8C582C8CAC583CA77
:1002AE00F0A3C8C582C8CAC583CADFE9DEE780BE2F
:0105A1000059
:00000001FF
