:10051D0020202020202020202020202020202020CE
:10052D000057726F6E672100436F7272656374219D
:0B053D000050617373776F72643A0026
:1005A60003080000190E0B3131343531343139313D
:0505B60039383130006E
:1002BE00EFD3940A40037F0022C3900029E50A95EC
:1002CE0082E509958340037F0022BF0A047F0080E8
:1002DE0000AB08AA09A90AEF1201B97401250AF5A3
:1002EE000AE43509F5097BFF7A05791D7D017F0248
:1002FE00120548E4F52AC3E50A9419FFE5099400AE
:10030E00FEC3E52A9FEE6480F87480985019E52AA2
:10031E0004FD7419252AF8E6FB7A00752F017F0279
:0A032E00120589052A80CF7F012205
:10033800EF640C60037F0022900019E508700AE55D
:100348000A65827004E50965837002FF2274FF253F
:100358000AF50A74FF3509F5097BFF7A05791D7DD1
:10036800017F02120548E4F52AC3E50A9419FFE55E
:10037800099400FEC3E52A9FEE6480F874809850C3
:1003880019E52A04FD7419252AF8E6FB7A00752F69
:0D039800017F02120589052A80CF7F012216
:1003A500EF640B60037F0022C3E50A9419FFE5099A
:1003B5009400FEEF640D4E60028015E4F52A740B7F
:1003C500252AF8E624D0FF7419252AF8E66F60156A
:1003D5007BFF7A05791D7D017F021205487BFF7A37
:1003E50005792E801C052AE52AC3940D40D07BFF94
:1003F5007A05791D7D017F021205487BFF7A057913
:0B040500357D017F021205487F0122B7
:1004EE001205E87BFF7A05793E7D017F01120548F2
:1004FE001200038F29E52960F71202BEEF70F1AFEB
:0F050E0029120338EF70E9AF291203A5EF80E13E
:1005BC00EF1FAC0670011E4C600B007D027CC7DC8B
:0505CC00FEDDFC80EBE8
:0105D1002207
:0605FC00C2A58F80D2A70A
:09060200007F027EC7DEFEDFFC72
:01060B0022CC
:0A060C00C2A61205FCC2A7020602F6
:10056B00CFCDCFCECCCE1201DD7C007D0A1201DDCA
:04057B00ED2430FF3C
:0A057F00D2A61205FCC2A702060274
:1005D200AE07BE0104ED148006BE0209ED243F44BD
:0605E20080FF12060C224E
:1005E8007F3812060C7F0C12060C7F0612060C7F51
:0405F8000102060CEA
:0A061600AC031205D2AF0402057F09
:060548008B2B8A2C892D8B
:10054E001205D2E4FDAB2BAA2CA92D8D827583004A
:0C055E0012018CFF600612057F0D80E981
:01056A00226E
:0C04BB007F0AEA24FFFDE434FFFC7E0011
:0804C7008E308F318C328D3331
:1004CF007F017E00E4FBEBC39533E5326480F87463
:0E04DF008098500AAC30AD311201CB0B80E892
:0104ED0022EC
:040589008A2D8B2EFE
:10058D001205D2AA2FEAD39400400D1204BBAC2D54
:08059D00AD2E12056B1A80ED72
:0105A5002233
:100410001205D2C3EA64809480400B7F2B12057FC3
:100420008A398B3A800E7F2D12057FC3E49BF53A03
:10043000E49AF539AA38EAD39400400D1204BBAC13
:0904400039AD3A12056B1A80ED8A
:010449002290
:04044A008A3D8B3E1E
:10044E001205D2AA3FEAD3940040297F101204BDB0
:10045E00AC3DAD3ECFCDCFCECCCE1201DDEF540FA5
:10046E00FEC3940AEE5004243080022437FF120596
:04047E007F1A80D190
:010482002257
:040483008A428B43DB
:100487001205D2AA44EAD394004028EA24FFFDE4E7
:1004970034FFFC7F027E001204C7AC42AD43CFCDD0
:1004A700CFCECCCE1201DDEF54012430FF12057FF1
:0304B7001A80D2D6
:0104BA00221F
:10000300E4F52B7590FFC2932097137F14FE12051E
:10001300BC3097FD7F147E001205BC752B01209622
:10002300147F147E001205BC3096FD7F147E0012EF
:1000330005BC752B052095147F147E001205BC307A
:1000430095FD7F147E001205BC752B092094147F47
:10005300147E001205BC3094FD7F147E001205BC93
:10006300752B0D7590FFC2922097147F147E00129A
:1000730005BC3097FD7F147E001205BC752B022052
:1000830096147F147E001205BC3096FD7F147E000B
:100093001205BC752B062095147F147E001205BC37
:1000A3003095FD7F147E001205BC752B0A20941435
:1000B3007F147E001205BC3094FD7F147E00120570
:1000C300BC752B0E7590FFC2912097147F147E0090
:1000D3001205BC3097FD7F147E001205BC752B03FF
:1000E3002096147F147E001205BC3096FD7F147E8B
:1000F300001205BC752B072095147F147E00120592
:10010300BC3095FD7F147E001205BC752B0B20942B
:10011300147F147E001205BC3094FD7F147E001200
:1001230005BC752B0F7590FFC2902097147F147E2A
:10013300001205BC3097FD7F147E001205BC752BA1
:10014300042096147F147E001205BC3096FD7F14A4
:100153007E001205BC752B082095147F147E0012B7
:1001630005BC3095FD7F147E001205BC752B0C2059
:1001730094147F147E001205BC3094FD7F147E001E
:080183001205BC752B10AF2B17
:01018B002251
:03000000020232C7
:0C023200787FE4F6D8FD75814402027963
:10018C00BB010CE58229F582E5833AF583E0225028
:10019C0006E92582F8E622BBFE06E92582F8E22272
:0D01AC00E58229F582E5833AF583E493228C
:1001B900BB010689828A83F0225002F722BBFE0125
:0201C900F3221F
:1001CB00EF8DF0A4A8F0CF8CF0A428CE8DF0A42E48
:0201DB00FE2202
:1001DD00BC000BBE0029EF8DF084FFADF022E4CC06
:1001ED00F875F008EF2FFFEE33FEEC33FCEE9DECCF
:1001FD00984005FCEE9DFE0FD5F0E9E4CEFD22ED15
:10020D00F8F5F0EE8420D21CFEADF075F008EF2F5E
:10021D00FFED33FD4007985006D5F0F222C398FD4F
:05022D000FD5F0EA22EC
:10023E000204EEE493A3F8E493A34003F68001F2E4
:10024E0008DFF48029E493A3F85407240CC8C333C1
:10025E00C4540F4420C8834004F456800146F6DF90
:10026E00E4800B01020408102040809005A6E47E75
:10027E00019360BCA3FF543F30E509541FFEE49385
:10028E00A360010ECF54C025E060A840B8E493A34C
:10029E00FAE493A3F8E493A3C8C582C8CAC583CA77
:1002AE00F0A3C8C582C8CAC583CADFE9DEE780BE2F
:0105BB00003F
:00000001FF
