:1005140020202020202020202020202020202020D7
:100524000057726F6E672100436F727265637421A6
:0B0534000050617373776F72643A002F
:0D05ED000308000011060B010104050104C4
:1002BE00EFD3940A40037F0022C3900021E50A95F4
:1002CE0082E509958340037F0022AB08AA09A90A9B
:1002DE00EF1201B97401250AF50AE43509F5097B17
:1002EE00FF7A0579147D017F0212053FE4F522C3E2
:1002FE00E50A9411FFE5099400FEC3E5229FEE6422
:10030E0080F87480985019E52204FD74112522F8A6
:10031E00E6FB7A007527017F02120580052280CF49
:03032E007F01222A
:10033100EF640C60037F0022900011E508700AE56C
:100341000A65827004E50965837002FF2274FF2546
:100351000AF50A74FF3509F5097BFF7A0579147DE1
:10036100017F0212053FE4F522C3E50A9411FFE57E
:10037100099400FEC3E5229FEE6480F874809850D2
:1003810019E52204FD74112522F8E6FB7A00752790
:0D039100017F02120580052280CF7F01222E
:10039E00EF640B60037F0022C3E50A9411FFE509A9
:1003AE009400FEEF64064E60028013E4F522740B97
:1003BE002522F8E6FF74112522F8E66F60157BFF03
:1003CE007A0579147D017F0212053F7BFF7A05794C
:1003DE0025801C0522E522C3940640D27BFF7A05B8
:1003EE0079147D017F0212053F7BFF7A05792C7D02
:0903FE00017F0212053F7F01227C
:1004E5001205C97BFF7A0579357D017F0112053F2C
:1004F5001200038F21E52160F71202BEEF70F1AF04
:0F05050021120331EF70E9AF2112039EEF80E165
:10059D00EF1FAC0670011E4C600B007D027CC7DCAA
:0505AD00FEDDFC80EB07
:0105B2002226
:0605DD00C2A58F80D2A729
:0905E300007F027EC7DEFEDFFC92
:0105EC0022EC
:0A05FB00C2A61205DDC2A70205E347
:10056200CFCDCFCECCCE1201DD7C007D0A1201DDD3
:04057200ED2430FF45
:0A057600D2A61205DDC2A70205E3BC
:1005B300AE07BE0104ED148006BE0209ED243F44DC
:0605C30080FF1205FB227F
:1005C9007F381205FB7F0C1205FB7F061205FB7FA6
:0405D900010205FB1B
:0A060500AC031205B3AF0402057642
:06053F008B238A248925AC
:100545001205B3E4FDAB23AA24A9258D827583008A
:0C05550012018CFF60061205760D80E993
:010561002277
:0C04B2007F0AEA24FFFDE434FFFC7E001A
:0804BE008E288F298C2A8D2B5A
:1004C6007F017E00E4FBEBC3952BE52A6480F8747C
:0E04D6008098500AAC28AD291201CB0B80E8AB
:0104E40022F5
:040580008A258B2617
:100584001205B3AA27EAD39400400D1204B2AC2595
:08059400AD261205621A80ED8C
:01059C00223C
:100407001205B3C3EA64809480400B7F2B120576F4
:100417008A318B32800E7F2D120576C3E49BF5322D
:10042700E49AF531AA30EAD39400400D1204B2AC35
:0904370031AD321205621A80EDAC
:010440002299
:040441008A358B3637
:100445001205B3AA37EAD3940040297F101204B4E9
:10045500AC35AD36CFCDCFCECCCE1201DDEF540FBE
:10046500FEC3940AEE5004243080022437FF12059F
:04047500761A80D1A2
:010479002260
:04047A008A3A8B3BF4
:10047E001205B3AA3CEAD394004028EA24FFFDE417
:10048E0034FFFC7F027E001204BEAC3AAD3BCFCDF2
:10049E00CFCECCCE1201DDEF54012430FF12057603
:0304AE001A80D2DF
:0104B1002228
:10000300E4F5237590FFC2932097137F14FE120526
:100013009D3097FD7F147E0012059D752301209668
:10002300147F147E0012059D3096FD7F147E00120E
:10003300059D7523052095147F147E0012059D30C0
:1000430095FD7F147E0012059D7523092094147F6E
:10005300147E0012059D3094FD7F147E0012059DD1
:1000630075230D7590FFC2922097147F147E0012A2
:10007300059D3097FD7F147E0012059D7523022098
:1000830096147F147E0012059D3096FD7F147E002A
:1000930012059D7523062095147F147E0012059D7D
:1000A3003095FD7F147E0012059D75230A2094145C
:1000B3007F147E0012059D3094FD7F147E0012058F
:1000C3009D75230E7590FFC2912097147F147E00B7
:1000D30012059D3097FD7F147E0012059D75230345
:1000E3002096147F147E0012059D3096FD7F147EAA
:1000F3000012059D7523072095147F147E001205B9
:100103009D3095FD7F147E0012059D75230B209471
:10011300147F147E0012059D3094FD7F147E00121F
:10012300059D75230F7590FFC2902097147F147E51
:100133000012059D3097FD7F147E0012059D7523E7
:10014300042096147F147E0012059D3096FD7F14C3
:100153007E0012059D7523082095147F147E0012DE
:10016300059D3095FD7F147E0012059D75230C209F
:1001730094147F147E0012059D3094FD7F147E003D
:0801830012059D752310AF2346
:01018B002251
:03000000020232C7
:0C023200787FE4F6D8FD75813C0202796B
:10018C00BB010CE58229F582E5833AF583E0225028
:10019C0006E92582F8E622BBFE06E92582F8E22272
:0D01AC00E58229F582E5833AF583E493228C
:1001B900BB010689828A83F0225002F722BBFE0125
:0201C900F3221F
:1001CB00EF8DF0A4A8F0CF8CF0A428CE8DF0A42E48
:0201DB00FE2202
:1001DD00BC000BBE0029EF8DF084FFADF022E4CC06
:1001ED00F875F008EF2FFFEE33FEEC33FCEE9DECCF
:1001FD00984005FCEE9DFE0FD5F0E9E4CEFD22ED15
:10020D00F8F5F0EE8420D21CFEADF075F008EF2F5E
:10021D00FFED33FD4007985006D5F0F222C398FD4F
:05022D000FD5F0EA22EC
:10023E000204E5E493A3F8E493A34003F68001F2ED
:10024E0008DFF48029E493A3F85407240CC8C333C1
:10025E00C4540F4420C8834004F456800146F6DF90
:10026E00E4800B01020408102040809005EDE47E2E
:10027E00019360BCA3FF543F30E509541FFEE49385
:10028E00A360010ECF54C025E060A840B8E493A34C
:10029E00FAE493A3F8E493A3C8C582C8CAC583CA77
:1002AE00F0A3C8C582C8CAC583CADFE9DEE780BE2F
:0105FA000000
:00000001FF
