:0D00B9000B083F065B4F666D7D077F6F00F3
:10008F00EFD394075023ED940AEC648094805019B9
:10009F00EF25E025E0F4F5A074082DF8E6F580EBE8
:0A00AF004A600674802580F5802267
:0C00C700E4FBFA7D01FCFF12008F80F4C6
:03000000020003F8
:0C000300787FE4F6D8FD75811202004AF7
:10000F000200C7E493A3F8E493A34003F68001F240
:10001F0008DFF48029E493A3F85407240CC8C333F2
:10002F00C4540F4420C8834004F456800146F6DFC1
:10003F00E4800B01020408102040809000B9E47E98
:10004F00019360BCA3FF543F30E509541FFEE493B6
:10005F00A360010ECF54C025E060A840B8E493A37D
:10006F00FAE493A3F8E493A3C8C582C8CAC583CAA8
:10007F00F0A3C8C582C8CAC583CADFE9DEE780BE60
:0100C6000039
:00000001FF
