:0D0111000B083F065B4F666D7D077F6F009A
:1000FB00EF1FAC0670011E4C600B007D027CC7DC51
:05010B00FEDDFC80EBAD
:0101100022CC
:1000CA00EFD39407502AED940AEC64809480502070
:1000DA00EF25E025E0F4F5A074082DF8E6F580EBAD
:1000EA004A600674802580F5807F017E001200FB3D
:0100FA0022E3
:10008F00E4FBFA7D01FCFF1200CAE47D01FC7F0155
:10009F001200CA0B7D047C007F021200CAE41B7D94
:1000AF0005FC7F031200CAE47D01FC7F041200CA25
:0B00BF00E47D04FC7F051200CA80C530
:03000000020003F8
:0C000300787FE4F6D8FD75811202004AF7
:10000F0002008FE493A3F8E493A34003F68001F278
:10001F0008DFF48029E493A3F85407240CC8C333F2
:10002F00C4540F4420C8834004F456800146F6DFC1
:10003F00E4800B0102040810204080900111E47E3F
:10004F00019360BCA3FF543F30E509541FFEE493B6
:10005F00A360010ECF54C025E060A840B8E493A37D
:10006F00FAE493A3F8E493A3C8C582C8CAC583CAA8
:10007F00F0A3C8C582C8CAC583CADFE9DEE780BE60
:01011E0000E0
:00000001FF
